:100000000C9462000C948A000C948A000C948A0070
:100010000C948A000C948A000C948A000C948A0038
:100020000C948A000C948A000C948A000C948A0028
:100030000C948A000C948A000C948A000C948A0018
:100040000C94B5040C948A000C948A000C948A00D9
:100050000C948A000C948A000C948A000C948A00F8
:100060000C94FF040C948A00000000002400270078
:100070002A0000000000250028002B0000000000DE
:1000800023002600290004040404040404040202DA
:100090000202020203030303030301020408102007
:1000A0004080010204081020010204081020000012
:1000B0000008000201000003040700000000000027
:1000C00000003A0811241FBECFEFD8E0DEBFCDBF3D
:1000D00011E0A0E0B1E0E8EFF2E102C005900D927E
:1000E000A635B107D9F722E0A6E5B1E001C01D921F
:1000F000A532B207E1F710E0C2E6D0E004C02197D4
:10010000FE010E947409C136D107C9F70E941E067C
:100110000C947A090C94000008950895833081F0BE
:1001200028F4813099F08230A9F008958730A9F041
:100130008830C9F08430B1F4809180008F7D03C095
:10014000809180008F7780938000089584B58F77A9
:1001500084BD089584B58F7DFBCF8091B0008F77EB
:100160008093B00008958091B0008F7DF9CFCF9338
:10017000DF93282F30E0F901E255FF4F8491F90118
:10018000E656FF4FD491F901EA57FF4FC491CC23B3
:10019000A1F081110E948E00EC2FF0E0EE0FFF1F06
:1001A000E458FF4FA591B491EC91ED2381E090E0EC
:1001B00009F480E0DF91CF91089580E090E0FACFDC
:1001C0001F93CF93DF93282F30E0F901E255FF4FC3
:1001D0008491F901E656FF4FD491F901EA57FF4F98
:1001E000C491CC23A9F0162F81110E948E00EC2F10
:1001F000F0E0EE0FFF1FEE58FF4FA591B4918FB7BF
:10020000F894EC91111108C0D095DE23DC938FBFD8
:10021000DF91CF911F910895DE2BF8CFCF93DF931D
:1002200090E0FC01E656FF4F24918A579F4FFC0156
:1002300084918823D1F090E0880F991FFC01E85940
:10024000FF4FA591B491FC01EE58FF4FC591D49199
:1002500061110EC09FB7F8948C91E22FE0958E2328
:100260008C932881E223E8839FBFDF91CF9108958B
:100270008FB7F894EC91E22BEC938FBFF6CF3FB79A
:10028000F89480919F019091A001A091A101B0915B
:10029000A20126B5A89B05C02F3F19F00196A11D0C
:1002A000B11D3FBFBA2FA92F982F8827BC01CD01C0
:1002B000620F711D811D911D43E0660F771F881F1E
:1002C000991F4A95D1F708958F929F92AF92BF924E
:1002D000CF92DF92EF92FF924B015C010E943F01AF
:1002E0006B017C010E943F016C197D098E099F09F9
:1002F000683E734081059105A8F321E0821A9108B8
:10030000A108B10888EEC80E83E0D81EE11CF11CDC
:1003100081149104A104B10429F7FF90EF90DF90BC
:10032000CF90BF90AF909F908F90089520917701CC
:10033000260F3327331F21323105ECF42091EF01D2
:10034000FC0190E080E0243069F082E00895A09103
:1003500077012191AC01495A5E4FA40FB52FB11D11
:100360002C930196861798F380917701680F60931C
:10037000770180E0089581E008951092EF0181E017
:100380008093EE011092C90161E082E10E94E000D9
:1003900061E083E10E94E000E9EBF0E080818E7F84
:1003A000808380818D7F808380E28093B80085E4A4
:1003B0008093BC000895CF93DF9391E09093560112
:1003C0008823B9F0C091B800D091BA008091BC00E8
:1003D0008A7B8093BC0060E082E10E94E00060E0E4
:1003E00083E10E94E0000E94BD01D093BA00C09357
:1003F000B800DF91CF9108958F929F92AF92BF92F4
:10040000CF92DF92EF92FF920F931F93CF93DF93E0
:10041000D0912402D13208F0D7C0182FC091230206
:100420000E943F016B017C018091EF0181116BC043
:1004300082E08093EF011093EE018FEF8093ED0146
:100440001092EC01D093EB01A3E0B2E0EBECF1E011
:1004500080E0D81391C01092CA018091CA01CC0FDC
:10046000C82BC093CA018091C901813009F088C0AE
:100470001092C9010E943F016B017C018091CA0169
:100480008093BB008091F1019091F201A091F30162
:10049000B091F401892B8A2B8B2BA1F00E943F0194
:1004A0000091F1011091F2012091F3013091F401DA
:1004B0006C197D098E099F09061717072807390748
:1004C00008F442C08091BC0083FDD8CF85EC8093B6
:1004D000BC000E943F016B017C018091EF018230E2
:1004E00009F450C08091ED018F3F09F46FC08091F5
:1004F000ED01803209F46CC08091ED01803309F484
:1005000069C084E026C08091F1019091F201A09130
:10051000F301B091F401892B8A2B8B2B09F484CF42
:100520000E943F018090F1019090F201A090F301B0
:10053000B090F4016C197D098E099F098616970603
:10054000A806B90608F070CF8091F0010E94DB0187
:1005500085E0109202021092240210920102DF91B3
:10056000CF911F910F91FF90EF90DF90CF90BF90B0
:10057000AF909F908F9008959D9191938F5F69CFD9
:1005800085EEA5CF8091F1019091F201A091F30148
:10059000B091F401892B8A2B8B2B09F49ECF0E94FA
:1005A0003F010091F1011091F2012091F30130918E
:1005B000F4016C197D098E099F0906171707280792
:1005C000390708F08ACFC0CF81E0C3CF80E0C1CF28
:1005D00082E0BFCF83E0BDCFCF92DF92EF92FF9258
:1005E0000F931F93CF93DF93D82FC62F613208F05C
:1005F00098C00E943F016B017C018091EF01811145
:100600006BC081E08093EF018093EE019FEF9093A8
:10061000ED011092EC019C0F9093EB018093CA01C5
:100620008091CA01DD0FD82BD093CA018091C901F6
:10063000813009F078C01092C9010E943F016B011E
:100640007C018091CA018093BB008091F10190915F
:10065000F201A091F301B091F401892B8A2B8B2B2D
:10066000A1F00E943F010091F1011091F20120914F
:10067000F3013091F4016C197D098E099F09061769
:1006800017072807390708F448C08091BC0083FD8C
:10069000D8CF85EC8093BC000E943F016B017C01A8
:1006A0008091EF01813009F440C08091EC018C17FA
:1006B00010F4C091EC01EBECF1E0A9EAB1E080E0CC
:1006C0008C1355C08C2FDF91CF911F910F91FF900C
:1006D000EF90DF90CF9008958091F1019091F20119
:1006E000A091F301B091F401892B8A2B8B2B09F493
:1006F00084CF0E943F010091F1011091F2012091FD
:10070000F3013091F4016C197D098E099F090617D8
:1007100017072807390708F070CF8091F0010E9471
:10072000DB01C0E0CFCF85EEB5CF8091F101909194
:10073000F201A091F301B091F401892B8A2B8B2B4C
:1007400009F4AECF0E943F010091F1011091F20136
:100750002091F3013091F4016C197D098E099F09F4
:10076000061717072807390708F09ACFD6CF9191B7
:100770009D938F5FA5CF0895E091A8018091A70177
:10078000E81730F4F0E0E755FE4F808190E00895DF
:100790008FEF9FEF08959091A8018091A7012FEF0F
:1007A0003FEF981748F4E92FF0E0E755FE4F20811E
:1007B00030E09F5F9093A801C90108958091A7013F
:1007C0009091A801891B990B0895CF92DF92EF9227
:1007D000FF920F931F93CF93DF937C01CB018A018C
:1007E00020910102222389F0EB016B01C40ED51E7A
:1007F000CC15DD0569F06991D701ED91FC9101906F
:10080000F081E02DC7010995F3CF642F0E94960176
:10081000C801DF91CF911F910F91FF90EF90DF9072
:10082000CF900895CF93DF931F92CDB7DEB7698342
:10083000209101022223F9F020912402203258F065
:1008400021E030E0FC013383228390E080E00F90D0
:10085000DF91CF91089580910202E82FF0E0ED5FE3
:10086000FD4F998190838F5F8093020280932402D1
:1008700081E090E0ECCF61E0CE0101960E9496010C
:10088000F7CF90E080E00895CF93C62F91E090934A
:1008900001029DE190932302109202021092240221
:1008A000682F85EF91E00E9412046C2F85EF91E094
:1008B0000E94120481E0CF910C94FC0181E08093AE
:1008C00001028DE180932302109202021092240211
:1008D0006AE285EF91E00E94120480E00E94FC0130
:1008E00061E08DE10E94EC021092A8018093A701C3
:1008F00085EF91E00E94CB03089585ED8093BC00C5
:100900008091F1019091F201A091F301B091F40175
:100910000796A11DB11D23E0B695A79597958795DC
:100920002A95D1F72091BC0024FD03C01092EF015D
:1009300008954091F1015091F2016091F30170919D
:10094000F401452B462B472B69F30097A105B10510
:1009500041F025E12A95F1F700000197A109B109BD
:10096000E1CF8091F0010C94DB011F920F920FB642
:100970000F9211242F933F938F939F93AF93BF9325
:1009800080919B0190919C01A0919D01B0919E014D
:1009900030919A0126E0230F2D3758F50296A11DBC
:1009A000B11D20939A0180939B0190939C01A09389
:1009B0009D01B0939E0180919F019091A001A09113
:1009C000A101B091A2010196A11DB11D80939F01CB
:1009D0009093A001A093A101B093A201BF91AF9108
:1009E0009F918F913F912F910F900FBE0F901F906D
:1009F000189529E8230F0396A11DB11DD2CF1F9290
:100A00000F920FB60F9211242F933F934F935F9342
:100A10006F937F938F939F93AF93BF93EF93FF93C6
:100A20008091B900887F803609F44AC0F0F5883299
:100A300009F4A7C018F5803109F49BC0B8F48823E5
:100A400009F4F9C0883009F494C0FF91EF91BF9187
:100A5000AF919F918F917F916F915F914F913F9156
:100A60002F910F900FBE0F901F901895883109F4A9
:100A700088C0803251F78093ED0114C0803409F4AE
:100A80009DC040F48033B9F38833F9F68093ED01CB
:100A900085ECB0C0803509F485C0883509F496C06E
:100AA000883499F60E947D04D0CF883909F48CC02F
:100AB00038F5883729F050F4883611F0803729F658
:100AC00083E08093EF011092990157C0883809F4B0
:100AD0007BC0803919F0803809F0B7CF8091990137
:100AE000803208F071C0E091990181E08E0F80930F
:100AF00099018091BB00F0E0E758FE4F80833DC034
:100B0000803B39F0E0F4803A09F479C0883A09F082
:100B10009CCF84E08093EF011092780110927701CE
:100B2000E091A501F091A6010995809177018111CD
:100B30000FC081E0809377011092570109C0803C7B
:100B400009F4A6CF883C09F4A3CF883B09F07DCFF8
:100B5000E091780181E08E0F80937801F0E0E95A0E
:100B6000FE4F80818093BB00909178018091770146
:100B700029C08091CA018093BB0085EC8093BC00A2
:100B800064CF9091EC018091EB01981758F5E091BA
:100B9000EC0181E08E0F8093EC01F0E0E553FE4F15
:100BA0008081E9CFE091EC0181E08E0F8093EC0130
:100BB0008091BB00F0E0E553FE4F80839091EC0103
:100BC0008091EB019817C8F285E8D8CFE091EC014D
:100BD00081E08E0F8093EC018091BB00F0E0E55343
:100BE000FE4F80838091EE0181115CCF81E0809384
:100BF000C90184EA8093BC001092EF0126CF85ECF6
:100C00008093BC001092EF0180919901803230F402
:100C1000E0919901F0E0E758FE4F10826091990150
:100C200070E0E091A301F091A40189E791E00995BA
:100C3000109299010ACF1092ED0134CFCF93DF9338
:100C4000CDB7DEB761970FB6F894DEBF0FBECDBF4C
:100C5000789484B5826084BD84B5816084BD85B597
:100C6000826085BD85B5816085BD80916E008160A3
:100C700080936E0010928100809181008260809349
:100C8000810080918100816080938100809180004B
:100C90008160809380008091B10084608093B10076
:100CA0008091B00081608093B00080917A00846070
:100CB00080937A0080917A00826080937A0080919C
:100CC0007A008E7F80937A0080917A00806880938A
:100CD0007A001092C1001092A8011092A701109200
:100CE0000202109224020E94BD018CE890E09093D1
:100CF000A6018093A5018DE890E09093A4018093D4
:100D0000A3010E94BD010E945E04682F6E7F8AE2EB
:100D10000E94440460E08EE00E9444040E945E044D
:100D2000682F61608AE20E94440476E5C72E71E074
:100D3000D72E0AE411E0F801F0800E5F1F4F61E04A
:100D40008F2D0E940E0160E08F2D0E94E000C016E2
:100D5000D10689F760E2C62E61E0D62E02E111E0ED
:100D6000F801F0800E5F1F4F61E08F2D0E940E0191
:100D700061E08F2D0E94E000C016D10689F760E087
:100D800081E10E940E0160E080E10E940E0160E0BE
:100D90008FE00E940E0168EE73E080E090E00E9418
:100DA0006401AE01495F5F4F58874F83F1E0F093D4
:100DB00001024DE14093230210920202109224029C
:100DC00061E085EF91E00E94120480E00E94FC0146
:100DD00066E08DE10E94EC021092A8018093A701C9
:100DE0008E010F5F1F4F85EF91E00E94CB03F8014A
:100DF00081938F014F8158854E175F07A1F7698155
:100E00007A8176276727762734E0759567953A9536
:100E1000E1F7072E000C880B990B0E9452082DEC6D
:100E20003CEC4CE151E40E94B60820E030E040E8A0
:100E30005AE30E94B6086B877C878D879E876B81FB
:100E40007C8176276727762744E0759567954A95D4
:100E5000E1F7072E000C880B990B0E9452082DEC2D
:100E60003CEC4CE151E40E94B60820E030E040E860
:100E70005AE30E94B6086B017C016D817E81762762
:100E80006727762754E0759567955A95E1F7072E01
:100E9000000C880B990B0E9452082DEC3CEC4CE1A5
:100EA00051E40E94B60820E030E040E85AE30E9496
:100EB000B6082B013C018FE00E94B7008C0180E155
:100EC0000E94B7005C0181E10E94B70021E030E0A0
:100ED000AB2811F030E020E01901220C331C21E096
:100EE00030E0892B11F030E020E0220F331F220F79
:100EF000331F222A332A81E090E0012B11F090E089
:100F000080E0282A392A8AE4A82E81E0B82E10E051
:100F100000E0C1010197998B888BF501F081FF8773
:100F200042E0A40EB11C60E08F2F0E94E00082E13D
:100F300091E09A878987912C812C2114310409F43E
:100F400065C097E02916310409F460C020E030E064
:100F500040EE50E4C301B2010E94B10818160CF42F
:100F600052C020E030E040EE50ECC701B6010E94D4
:100F70004B0887FD3CC020E030E040EE50E46B853C
:100F80007C858D859E850E94B10818169CF120E015
:100F900030E040EE50E4C701B6010E94B1081816D7
:100FA00064F120E030E040EE50EC6B857C858D856F
:100FB0009E850E944B0887FD23C020E030E040EE74
:100FC00050ECC301B2010E944B0887FF1CC085E0B2
:100FD00090E028893989281B390B200F311F2A5F9F
:100FE0003F4F263031059CF026503109FACF81E081
:100FF00090E0EFCF82E090E0ECCF83E090E0E9CFAB
:1010000084E090E0E6CF90E080E0E3CF9801E985CE
:10101000FA8580813296FA87E98747E0429FF0019E
:10102000439FF00D1124E05EFE4FE80DF91D608135
:101030000E94E0005FEF851A950A87E08816910408
:1010400009F07BCF65E070E080E090E00E946401F1
:1010500061E08F850E94E0000F5F1F4F0630110591
:1010600009F05BCFE0E0F0E0EF2B09F49FCE0E94A7
:1010700000009CCEE5EFF1E01382128288EE93E04F
:10108000A0E0B0E084839583A683B78384E091E0F9
:101090009183808308950E948D0808F481E008956B
:1010A000E89409C097FB3EF4909580957095619502
:1010B0007F4F8F4F9F4F9923A9F0F92F96E9BB27B8
:1010C0009395F695879577956795B795F111F8CF34
:1010D000FAF4BB0F11F460FF1BC06F5F7F4F8F4F9F
:1010E0009F4F16C0882311F096E911C0772321F095
:1010F0009EE8872F762F05C0662371F096E8862F2D
:1011000070E060E02AF09A95660F771F881FDAF783
:10111000880F9695879597F90895990F0008550FB0
:10112000AA0BE0E8FEEF16161706E807F907C0F06D
:1011300012161306E407F50798F0621B730B840B75
:10114000950B39F40A2661F0232B242B252B21F44F
:1011500008950A2609F4A140A6958FEF811D811DEF
:1011600008950E948D0808F48FEF08950E94C90821
:101170000C943A090E942C0938F00E94330920F09F
:10118000952311F00C9423090C94290911240C9433
:101190006E090E944B0970F3959FC1F3950F50E0C3
:1011A000551F629FF001729FBB27F00DB11D639F19
:1011B000AA27F00DB11DAA1F649F6627B00DA11DBF
:1011C000661F829F2227B00DA11D621F739FB00D65
:1011D000A11D621F839FA00D611D221F749F3327D5
:1011E000A00D611D231F849F600D211D822F762F6E
:1011F0006A2F11249F5750409AF0F1F088234AF04B
:10120000EE0FFF1FBB1F661F771F881F91505040B6
:10121000A9F79E3F510580F00C9423090C946E09A8
:101220005F3FE4F3983ED4F3869577956795B7953D
:10123000F795E7959F5FC1F7FE2B880F911D969557
:10124000879597F9089597F99F6780E870E060E0C7
:1012500008959FEF80EC089500240A94161617064F
:1012600018060906089500240A9412161306140697
:1012700005060895092E0394000C11F4882352F0FA
:10128000BB0F40F4BF2B11F460FF04C06F5F7F4FB2
:101290008F4F9F4F089557FD9058440F551F59F099
:1012A0005F3F71F04795880F97FB991F61F09F3F53
:1012B00079F087950895121613061406551FF2CF7C
:1012C0004695F1DF08C0161617061806991FF1CFCC
:1012D00086957105610508940895E894BB276627F3
:1012E0007727CB0197F90895EE0FFF1F0590F49132
:0812F000E02D0994F894FFCFF2
:1012F800000000001204E5034104BB03DE03CB0336
:10130800BC03000001000200030004000500060001
:1013180000000001000000000100000001000001C1
:1013280000010001000101000000010101010001AC
:1013380000010101010100010101070009000A0083
:061348000B000C00080080
:00000001FF
